:020000040000FA
:1000000028050020D9000000F30000007113000053
:1000100000000000000000000000000000000000E0
:10002000000000000000000000000000F7000000D9
:100030000000000000000000F90000008D1C00001E
:10004000911300009B130000A5130000AF130000E4
:10005000FD000000FD000000B9130000C313000004
:10006000CD130000FD000000D7130000FD000000CC
:10007000E1130000FD000000EB130000F513000089
:10008000FF13000009140000131400001D140000E9
:1000900027140000311400003B1400004514000038
:1000A0004F140000FD00000059140000631400000C
:1000B0006D140000FD0000007714000081140000A2
:1000C0000448854600F0E2F8004800478D31000002
:1000D000C046C0462805002009480A4A002100A160
:1000E000814200D902440848026008488047084815
:1000F0000047FEE7FEE7FEE7FEE7FEE7FEE700005B
:10010000000000200000000008ED00E0CD1C000011
:10011000C100000030B50B4601460020202201241A
:1001200009E00D46D5409D4205D31D469540491B2B
:100130002546954040191546521E002DF1DC30BD74
:1001400070B500242546002801DA01244042002928
:1001500001DA01254942FFF7DDFFAC4200D0404201
:10016000002C00D0494270BD03460B439B0703D0CF
:1001700009E008C9121F08C0042AFAD203E00B786C
:100180000370401C491C521EF9D27047D2B201E0E4
:100190000270401C491EFBD270470022F6E710B5E2
:1001A00013460A4604461946FFF7F0FF204610BDE5
:1001B00030B504460020034600E05B1C934203D2A6
:1001C000E05CCD5C401BF8D030BD30B5054600206A
:1001D000034600E05B1C934205D2EC5CC85C201A2D
:1001E00001D1002CF6D130BDF0B51FB40646002079
:1001F00082B005464024019100901BE001992246FF
:100200000F46304600F030F8049A059B801A994159
:1002100010D310461946224600F016F8361A8F41C0
:100220000197224601200021009F00F00DF83818A8
:100230004D4100902046641E0028DFDC019B0098A1
:100240002946324607B0F0BD10B5202A04DB01462E
:10025000203A9140002010BD914020239C1A034673
:10026000E3401943904010BD10B5202A04DB084636
:10027000203AD040002110BD0B46D340D04020246E
:10028000A21A91400843194610BD0000064C0125F2
:10029000064E05E0E36807CC2B430C3C984710342E
:1002A000B442F7D3FFF710FF943F0000B43F0000C3
:1002B00010B504462648006A4007C00F00280CD03D
:1002C00024484068002802D02249486880472048D6
:1002D000406A042188431E4948621D48006A80071D
:1002E000C00F00280CD01B488068002802D0194994
:1002F000886880471648406A02218843144948624A
:100300001348006AC007C00F00280CD01148C0680D
:10031000002802D00F49C86880470D48406A40084D
:1003200040000B4948620A48006A0007C00F0028D5
:100330000CD008480068002802D0064908688047A9
:100340000348406A082188430149486210BD000003
:10035000402400406C01002070B50646301FC4B236
:10036000A0025049451888154059C007C00F002801
:100370000DD0A0014C490858002803D0A1014A4AD9
:10038000505880470121C943FF2005304151FF20CB
:10039000013040598007C00F00280FD0A00142490A
:1003A00040184068002804D0A1013F4A89184868D5
:1003B00080470221C943FF2005304151FF20013011
:1003C00040594007C00F00280FD0A00136494018FF
:1003D0008068002804D0A101334A891888688047C2
:1003E0000421C943FF2005304151FF20013040590D
:1003F0000007C00F00280FD0A0012B494018C0688B
:10040000002804D0A101284A8918C868804708211B
:10041000C943FF2005304151FF20013040594006BB
:10042000C00F00280FD0A0011F4940188069002884
:1004300004D0A1011C4A8918886980474021C9431A
:10044000FF2005304151FF20013040590006C00F08
:1004500000280FD0A00114494018C069002804D01A
:10046000A101114A8918C86980478021C943FF202A
:1004700005304151FF2001304059C005C00F002810
:100480000ED0A00108494018006A002804D0A1013C
:10049000054A8918086A80470449FF200530415100
:1004A00070BD0000003000407C010020FFFEFFFF17
:1004B00010B502460020002A04D0012A0BD0022ADF
:1004C0001DD111E0104B1B681B0C1B048CB2234385
:1004D0000D4C236015E00C4B1B6A1B0C1B048CB2EB
:1004E0002343094C23620CE0074B40331B681B0C71
:1004F0001B048CB22343044C4034236001E00120F0
:1005000000BF00BF10BD0000000C004010B5024647
:100510000020002A04D0012A0BD0022A1DD111E0AC
:10052000104B5B681B0C1B048CB223430D4C6360A7
:1005300015E00C4B5B6A1B0C1B048CB22343094C6B
:1005400063620CE0074B40335B681B0C1B048CB2EE
:100550002343044C4034636001E0012000BF00BF2E
:1005600010BD0000000C004030B502460020002AFB
:1005700004D0012A4AD0022A7ED191E0724BDB6876
:1005800001246402A3430C78640201256D022C400F
:1005900023436D4CE3602346DB68A415A3434C78EA
:1005A00024026D102C402343674CE3602346DB6834
:1005B0007024A3438C78240170252C402343624C83
:1005C000E3602346DB680824A343CC78E4000825D5
:1005D0002C4023435C4CE3602346DB680424A343A4
:1005E0000C79A40004252C402343574CE360234698
:1005F000DB680224A3434C79640002252C4023438A
:10060000514CE360514C8B6823609AE04E4BDB6A9F
:1006100001246402A3430C78640201256D022C407E
:100620002343494CE3622346DB6AA415A3434C7879
:1006300024026D102C402343434CE3622346DB6AC3
:100640007024A3438C78240170252C4023433E4C16
:10065000E3622346DB6A0824A343CC78E400082540
:100660002C402343384CE3622346DB6A0424A34333
:100670000C79A400042500E061E02C402343324CB7
:10068000E3622346DB6A0224A3434C79640002251B
:100690002C4023432C4CE3622D4CCB68236050E06C
:1006A000294B4033DB6801246402A3430C786402C5
:1006B00001256D022C402343234C4034E360234644
:1006C000DB68A415A3434C7824026D102C4023430F
:1006D0001D4C4034E3602346DB687024A3438C78D0
:1006E000240170252C402343174C4034E3602346FB
:1006F000DB680824A343CC78E40008252C4023437E
:10070000114C4034E3602346DB680424A3430C7996
:10071000A40004252C4023430B4C4034E3602346C3
:10072000DB680224A3434C79640002252C40234358
:10073000054C4034E360074C0B69236001E0012065
:1007400000BF00BF30BD0000000C004024000020AE
:10075000280000202C00002001460020002904D0A1
:1007600001290AD002291AD10FE00F4AD268520893
:100770005200521C0C4BDA6013E00B4AD26A52084A
:100780005200521C084BDA620BE0074A4032D26832
:1007900052085200521C044B4033DA6001E0012041
:1007A00000BF00BF70470000000C00400146002061
:1007B00005E002460A32D0B20A46103AD1B21029F8
:1007C000F7DA4218D0B2704703461807000F09281D
:1007D00007DCF0201840902803DC934201DC8B42B8
:1007E00001DA012070470020FCE7000010B5044644
:1007F00001480068804710BD5400002002480349AA
:1008000088600348886070475A5A00000020004002
:10081000A5A50000034800680F21C90288430149CB
:100820000860704700200040F8B505460C460027D8
:10083000FFF7E4FF002C01D0012000E00020044677
:100840004348066A002D70D0012D3BD0022D2ED0DA
:10085000032D74D1006A01210907884340183C49DF
:1008600008623C48C06810218843210110221140D1
:1008700008433849C8600846C068202188436101A0
:100880002022114008433349C8603148806900097B
:1008900000010F302E49886108460068082188430E
:1008A000E100082211400843294908604BE028482C
:1008B000006804218843A100042211400843244910
:1008C000086040E02248006A012109078843401877
:1008D0001F4908621F484038C068022188436100F0
:1008E0000222114008431B494039C8600846C068CD
:1008F00004218843A10004221140084315494039CE
:10090000C86013480069000900010F3010490861F0
:100910000846006802218843610002221140084312
:100920000B4908600FE000E009E009480068400852
:100930004000E107C90F08430549086003E0FFF7DD
:1009400069FF042700BF00BF014806623846F8BDB2
:1009500000200040400D024001460020002906D042
:10096000012909D002290CD0032914D10EE00B4A29
:10097000D2681205D00F0FE0084A12695206D00F54
:100980000AE0064A5269D204D00F05E0034A926990
:100990005206D00F00E000BF00BF704700200040AB
:1009A0001EB50020002122A31B680293214C18CC05
:1009B00001940093204B1B689B069A0F002A06D0D7
:1009C000012A25D0022A19D0032A26D122E01A4B67
:1009D000DB680324640223405B0A02ACE05C174B33
:1009E0005843174B984208D1164B5988124BDB6875
:1009F0005B055B0D8B4200D1134810E00E4B5B6929
:100A00000124640223405B0A9B006C46E05806E028
:100A10000E4804E00120C00301E0002000BF00BF39
:100A2000054B1B68DB055C0F0346E34018461EBD03
:100A300004081018283F00000020004040420F002A
:100A400000366E01000C1000408651010048E8019C
:100A500010B50024FFF7A4FF0446044800684005D1
:100A6000810F2046C8400446204610BD00200040AB
:100A700010B50446207800F019FA607800F08CF880
:100A8000A07800F0BFF8002010BD000070B505464A
:100A90000C460026FFF7B2FE002C01D0012000E03A
:100AA000002004462B0001F023FC0906131E293404
:100AB0003F4A55606D00374800680121C9038843EB
:100AC000E1030122D20311400843324908605DE08E
:100AD00030484068022188436100022211400843E7
:100AE0002C49486052E02B48406804218843A1000B
:100AF0000422114008432749486047E025484068E0
:100B000008218843E1000822114008432149486038
:100B10003CE0204840681021884321011022114008
:100B200008431C49486031E01A4840682021884346
:100B300061012022114008431649486026E015480B
:100B4000406840218843A1014022114008431149D7
:100B500048601BE00F48406880218843E101802203
:100B6000114008430B49486010E00A484068FF21E3
:100B7000013188432102FF22013211400843054917
:100B8000486003E0FFF746FE042600BF00BF304682
:100B900070BD00000020004010B50446102C14D099
:100BA00008DC012C0DD0022C0CD0042C0BD0082C0E
:100BB00021D109E0202C09D0402C08D0802C1AD15A
:100BC00006E000BF00BF00BF00BF00BF00BF00BF06
:100BD000FFF714FE204600F081FCC4B2084800680C
:100BE000FF21C1318843A101FF22C13211400843D6
:100BF0000349086001E0042010BD00BF0020FBE7AE
:100C00000020004010B50446012C06D0022C05D06F
:100C1000042C04D0082C16D102E000BF00BF00BF96
:100C2000FFF7ECFD204600F059FCC4B2084800680C
:100C30000321490288436102032252021140084302
:100C40000349086001E0042010BD00BF0020FBE75D
:100C50000020004010B502460020002901D00123E9
:100C600000E000231946002907D0084B1B6A012425
:100C700094402343054C236206E0044B1B6A012485
:100C80009440A343014C236210BD000000200040AB
:100C900010B5014600208A1E130001F029FB05044F
:100CA000101C28344000204B1B895A05520D1F4B45
:100CB000DB68DB0ADB0213431C4CE36031E01A4BB8
:100CC000DB885A05520D194BDB68DB0ADB02134344
:100CD000164CE36025E0144B9B885A05520D134BCC
:100CE000DB68DB0ADB021343104CE36019E00E4BB8
:100CF0005B885A05520D0D4BDB68DB0ADB021343A0
:100D00000A4CE3600DE0084B1B885A05520D074B57
:100D1000DB68DB0ADB021343044CE36001E00420E0
:100D200000BF00BF10BD0000000C100000200040FC
:100D300001460020002906D001290CD0022915D037
:100D4000032927D11DE0154A526903239B029A43C8
:100D5000124B5A6120E0114A526903239B029A43C5
:100D600001239B02D2180D4B5A6115E00B4A5269C0
:100D700003239B029A430123DB02D218074B5A61DB
:100D80000AE0064A526903239B029A43D218034B96
:100D90005A6101E0042000BF00BF704700200040FE
:100DA00070B504460025FFF729FD002C06D0012C64
:100DB00006D0022C03D0032C0ED102E000BF00BFEE
:100DC00000BF0948006830218843210130221140CA
:100DD00008430549086003E0FFF71CFD042500BF38
:100DE00000BF284670BD00000020004001460020E2
:100DF000032906D004290BD0052911D006291FD1BB
:100E000016E0114A126930239A430F4B1A6119E018
:100E10000D4A126930239A4310320B4B1A6111E0CC
:100E2000094A126930239A432032074B1A6109E0BC
:100E3000054A126930239A433032034B1A6101E0AC
:100E4000042000BF00BF7047002000400146002082
:100E5000032906D004290BD0052911D006291FD15A
:100E600016E0114A926930239A430F4B9A6119E0B8
:100E70000D4A926930239A4310320B4B9A6111E06C
:100E8000094A926930239A432032074B9A6109E05C
:100E9000054A926930239A433032034B9A6101E04C
:100EA000042000BF00BF70470020004070B5054619
:100EB0002C46254800688006860F002C06D0012CA1
:100EC00005D0022C07D0032C0DD108E00DE0062040
:100ED000FFF78CFF09E00320FFF72AFF05E005205C
:100EE000FFF7B4FF01E0042070BD00BF17481849A8
:100EF000C8621848C862012C01D0012E07D100BF7A
:100F00001348006A04218843001D11490862012129
:100F10002046FFF789FC00BF2046FFF71DFD002893
:100F2000FAD02046FFF73CFF00213046FFF77CFC5B
:100F3000012C05D00648006A042188430449086250
:100F400000F0BCFE0020CFE7002000405A5A00000D
:100F500000000240A5A5000010B50446002C01D1F8
:100F6000042010BD2B48006A01210906884340185F
:100F7000284908622078002806D001281AD00228C3
:100F80000DD0032827D11EE02248406B032189069B
:100F900088430121C90640181E4948631DE01D48C9
:100FA000406B0321890688430121890640181949AD
:100FB000486312E01748406B0321890688434018B4
:100FC0001449486309E01348406B032189068843AC
:100FD0001049486301E00420C3E700BF0D48406B9F
:100FE00001214906884361784906012252061140D1
:100FF0000843084948636068401E07494861032167
:10100000081F01F0CBF90020034988610120086125
:101010000020A6E70020004000E000E010B50446F4
:1010200001480068804710BD34000020F8B505462F
:101030000F4616466CB22046002805DBC206D20ECB
:1010400001219140144A116000BF3946204601F049
:10105000E1F9012E0ED12046002809DB00BF00BFB8
:10106000C206D20E012191400C4A116000BF00BFA0
:1010700000BF0FE0204600280ADBC206D20E012185
:101080009140064A80321160BFF34F8FBFF36F8FDC
:1010900000BF00BFF8BD000080E200E000E100E01A
:1010A00010B502460023501E074C235C022A09D1CA
:1010B0000846CC17A40F2418A410A4000C1B01D1BF
:1010C000581CC3B2184610BD483F000010B5024678
:1010D0009001064BC018006901238B40984393018F
:1010E000024C1B191861002010BD0000000E0240C8
:1010F00070B504460D461646012332462946204661
:1011000001F06AF8002070BD02469001034BC01840
:101110004068C840C007C00F70470000000D024083
:1011200010B504460020144908611349C03908610C
:10113000032C1FD111490870114840680007C00FE7
:101140001049097808430F4908700F480078401C7F
:101150000D49087008460078082805D1002008705D
:101160000848007802F0F4FC064800784006000EBB
:101170000449087010BD0000C00E024008000020A5
:10118000000D02400A00002009000020F0B50446CE
:101190000D4616461F465548006A01210907884337
:1011A00040185249086200222946204600F0A2F861
:1011B0000021A0014E4A8018001FAA008150002E75
:1011C0000DD0A0014A49FC31401800680121A94016
:1011D0000843A101464AFC32891808600CE0A001CE
:1011E0004349FC31401800680121A9408843A1010E
:1011F0003F4AFC3289180860079800280DD0A001EA
:101200003B49FC314018C0690121A9400843A101B4
:10121000374AFC328918C8610CE0A0013449FC311E
:101220004018C0690121A9408843A101304AFC321D
:101230008918C861002F0DD0A0012D49FC3140183C
:10124000006A0121A9400843A101294AFC328918FA
:1012500008620CE0A0012649FC314018006A012117
:10126000A9408843A101224AFC32891808620598E6
:1012700000280DD0A0011E49FC314018406A012110
:10128000A9400843A1011A4AFC32891848620CE0BF
:10129000A0011749FC314018406A0121A940884348
:1012A000A101134AFC3289184862069800280DD023
:1012B000A0010F49FC314018C06A0121A940084330
:1012C000A1010B4AFC328918C8620CE0A001084950
:1012D000FC314018C06A0121A9408843A101044A99
:1012E000FC328918C8620020F0BD000000200040D8
:1012F000040C024030B50346002A0BD098010C4C78
:101300000019C06801248C4020439C01084D6419D9
:10131000E0600AE09801064C0019C06801248C4086
:10132000A0439C01024D6419E060002030BD000024
:10133000000D024030B500BF002A0BD083010B4CDA
:101340001B199B6801248C4023438401074D6419B9
:10135000A3600AE08301054C1B199B6801248C40A3
:10136000A3438401014D6419A36030BD000D024008
:1013700008B50020009000BF00980028FCD008BDF0
:1013800010B5044601480068804710BD38000020B1
:1013900010B50020FFF7C4FE10BD10B50120FFF707
:1013A000BFFE10BD10B50220FFF7BAFE10BD10B58C
:1013B0000320FFF7B5FE10BD10B5002000F0AEFD14
:1013C00010BD10B5012000F0A9FD10BD10B5002022
:1013D00000F098F810BD10B5002000F04FFC10BDD3
:1013E00010B50020FFF7CCFF10BD10B5002000F0B5
:1013F00089FC10BD10B5012000F084FC10BD10B5B3
:10140000022000F07FFC10BD10B5002000F072F843
:1014100010BD10B50420FEF79FFF10BD10B50520CC
:10142000FEF79AFF10BD10B50620FEF795FF10BD20
:1014300010B5002000F0DEF810BD10B5002000F05F
:10144000ABFE10BD10B5002000F08AFA10BD10B53B
:101450000020FEF72DFF10BD10B5002000F068FE43
:1014600010BD10B5012000F063FE10BD10B50020C6
:1014700000F0ACF810BD10B50020FFF7CFFD10BD97
:1014800010B50020FFF7B2F910BD0000004870470A
:101490003C0200200146002904D0022909D003297A
:1014A00015D10DE00C484069042290430A4A50616E
:1014B0000FE00948406940084000074A506108E0D1
:1014C0000548406902229043034A506101E004202C
:1014D000704700BF0020FBE70002004001460022E9
:1014E000002900D1704701E0521C49080129FBD8AE
:1014F0001046F7E710B5044601480068804710BD64
:101500003C00002010B5FFF7C1FF044615480069F4
:101510004007C00F002807D00020FFF7BBFF60681E
:10152000002801D0606880470E480069C007C00FDE
:10153000002807D00220FFF7ADFFA068002801D0E7
:10154000A0688047074800698007C00F002807D0BF
:101550000320FFF79FFF2068002801D02068804704
:1015600010BD000000020040014601200A78002A58
:1015700004D0144A126910231A4303E0114A126975
:1015800010239A430F4B1A614A78002A04D01A4656
:10159000126904231A4303E00A4A126904239A4396
:1015A000084B1A618A78002A04D01A46126902236D
:1015B0001A4303E0034A126902239A43014B1A615A
:1015C0000020704700ED00E030BF704710B50446C2
:1015D0000648C06A400840000449C86204480068E0
:1015E000002802D002480068804710BD0024004057
:1015F0004000002010B5044601480068804710BD37
:101600004400002010B5002000F01CF903480078C9
:10161000022108430149087010BD00001800002095
:1016200010B5012000F00EF90348007801210843AD
:101630000149087010BD00001800002000487047E4
:1016400048000020F8B50446A078FFF7AFF806463A
:1016500000F0EEF801281ED1A078FFF7A7F80346A6
:10166000A078FFF7A3F80646C017800F80198010F6
:101670001B186078FFF79AF8401E1749085C1B1882
:101680002078FFF793F81818871C07213846FEF7D3
:1016900057FDCDB21DE0A078FFF788F80346A0788B
:1016A000FFF784F80646C017800F801980101B18BA
:1016B0006078FFF77BF8401E0849085C1B1820780B
:1016C000FFF774F81818871C07213846FEF738FD15
:1016D000CDB22846F8BD0000303F00003C3F00007E
:1016E000FFB504460D4600262820039001275EE042
:1016F000002D55D00120B040002851D0330000F01B
:10170000F7FD07050C13272E38424C00207859228C
:101710000021FFF759F8074640E0207859220021C0
:10172000FFF752F8074639E0404800680007C00F4D
:10173000002806D1207812220021FFF745F807463D
:1017400005E0207824220021FFF73EF8074625E037
:10175000207806220021FFF737F807461EE02078A0
:1017600031220021FFF730F80746207869460872D9
:1017700014E0207812220021FFF726F8074620788F
:10178000694648720AE0207899220021FFF71CF888
:10179000074620786946887200E000BF00BF641CDD
:1017A000002F02D0384604B0F0BD701CC6B2072E20
:1017B0009EDB10202840002826D02020284000282A
:1017C00022D04020284000280ED06946887AFEF7B3
:1017D000EDFF69460190487AFEF7E8FF0090019915
:1017E000FFF75EFC039008E06946487AFEF7DEFFEB
:1017F00001210190FFF754FC03906846017A039899
:10180000814201DD0120CEE710202840002809D0C8
:1018100020202840002805D16846007A282801DDCC
:101820000120C0E700273846BDE700000014004053
:1018300001468A109006030E994201D1012070479B
:101840000020FCE70146002908D001290DD10948F4
:10185000406808229043074A506008E00548406805
:1018600010229043034A506001E00420704700BFFB
:101870000020FBE70014004010B5002203211720D0
:10188000FFF7D4FB002000F00BF8012000F008F86F
:10189000022000F005F8032000F002F8002010BD3F
:1018A0000146002906D001290BD0022910D00329B6
:1018B0001DD115E010480068802290430E4A106048
:1018C00017E00D484068802290430B4A506010E0BA
:1018D0000948006B0122D2039043074A106308E0D5
:1018E0000548006820229043034A106001E004206C
:1018F000704700BF0020FBE70014004001460029AC
:1019000006D001290CD0022912D0032921D118E0D8
:1019100012480068802290438030104A10601AE01C
:101920000E4840688022904380300C4A506012E09C
:101930000A48006B0122D20390438018074A1063C3
:1019400009E006480068202290432030034A1060D6
:1019500001E00420704700BF0020FBE700140040B6
:1019600010B5FFF76BFE044611484068C006C00F73
:1019700000280AD00E484068102188430C4948606E
:101980002068002801D02068804709484068000787
:10199000C00F00280AD0064840680821884304493F
:1019A00048606068002801D06068804710BD000072
:1019B0000014004070B504460126002C01D101201E
:1019C00070BDFFF73BFE0546207800F095F806460F
:1019D000607800F0A5F80646002E01D03046EFE70B
:1019E0006068002806D0606800F0B6F8002801D0D2
:1019F0000120E5E7A068002808D001221146A06870
:101A000000F0D8F8002801D00120D9E7E0680028CC
:101A100005D0E06800682860E06840686860207C65
:101A2000012805D1012203211720FFF7FFFA04E066
:101A3000002203211720FFF7F9FA3046C0E7000023
:101A4000FEB501467D26F6002A4800680006C00F54
:101A5000002817D02748406840084000401C254F08
:101A6000786006E0234840688007C00F002800D057
:101A700003E03046761E0028F4D100BF002E01D1CD
:101A80000920FEBD1B488068C3B21A48C068C4B2B2
:101A900018480069C5B217488069C0B2029015485D
:101AA000C069C0B201901348006AC0B200901148EA
:101AB0004069C2B20B704C708D7002980871019829
:101AC000487100988871CA700A4840684008400010
:101AD000084F7860384600680006C00F002806D01E
:101AE00000BF044840688007C00F0028F9D10020DB
:101AF000C7E700000014004010B501460120074A66
:101B0000526807231B029A430B0207242402234036
:101B10001A43024B5A60002010BD00000014004020
:101B200010B501460122002902D001290CD100E0A4
:101B300000BF0848006808239843CB0008242340CE
:101B40001843044B186001E0042010BD00BF0022C0
:101B50001046FAE70014004010B501460120144A6F
:101B6000126883039A430B789B03840323401A4330
:101B70000F4B1A600A78002A0DD01A4612683F23CC
:101B80001B029A438B781B023F24240223401A43F2
:101B9000074B1A6009E0064A1268D208D2004B7857
:101BA0005B075B0F1A43024B1A60002010BD000058
:101BB00000140040F7B581B004460E4600257D278D
:101BC000FF0000942C4800680006C00F002817D0C2
:101BD0002948406840084000401C2749486006E00A
:101BE000254840688007C00F002800D002E0781E1A
:101BF000071EF5D100BF002F02D1092004B0F0BDAF
:101C0000012E0FD107210098FFF76AFD0546002D30
:101C100001D02846F2E72078174988606078C860CC
:101C2000A07808610398012811D178210098FFF766
:101C300057FD0546002D01D02846DFE720790E49E3
:101C400088616079C861A0790862E07848610A48D3
:101C5000406840084000084948600846006800069F
:101C6000C00F002806D000BF034840688007C00F9F
:101C70000028F9D12846C1E70014004010B50248F9
:101C80000068804710BD00005000002010B5012002
:101C900001F052FE012000F0C7FD06480078401C0C
:101CA0000449087008460078022802D10020024941
:101CB000087010BD080000200900002010B5FEF7D4
:101CC0006FFE0149086010BD000000201CB5022015
:101CD000FEF7DEFF01210020FEF7A6FDFFF7EEFF75
:101CE00000F0F4FA0821684601F002F80120694684
:101CF0004870034801906846FFF72EF91CBD0000AC
:101D0000FFFFFF0010B50446002C04D0012C06D0C4
:101D1000022C0CD107E007480068804708E006481D
:101D20000068804704E005480068804700E000BF85
:101D300000BF10BD24000020280000202C0000203F
:101D400070B50546A81D44B2204600F0DFFA032115
:101D5000204600F09BFB2046002809DBC206D20E7D
:101D600001219140034A1160BFF34F8FBFF36F8F82
:101D700000BF70BD80E100E010B5024600200021E8
:101D800000BF0BE014234B43064CE358934203D1AE
:101D900014234B43181903E04B1CD9B20229F1D389
:101DA00000BF10BD5800002070B50546A81D44B204
:101DB000204600F0ABFA0321204600F067FB2046E6
:101DC000002809DB00BF00BFC206D20E01219140EE
:101DD000024A116000BF00BF00BF70BD00E100E01B
:101DE00070B506460D4600243046FFF7C5FF044691
:101DF000002C01D1042070BD002D04D0012D09D08C
:101E0000022D15D10DE060684069042188436168A6
:101E100048610FE0606840694008400061684861BF
:101E200008E060684069022188436168486101E018
:101E30000420E0E700BF0020DDE770B506460D4650
:101E400000243046FFF798FF0446002C01D10420FF
:101E500070BD60684068102188432901102211403C
:101E60000843616848600020F2E770B506460D46F9
:101E700000243046FFF780FF0446002C01D10420E7
:101E800070BD002D02D0012D10D107E060684068C0
:101E900002218843801C6168486009E060684068EE
:101EA00040084000401C6168486001E00420E7E70A
:101EB00000BF0020E4E7F8B506460D4600270024E1
:101EC0003046FFF759FF0446002C01D10420F8BD2D
:101ED000002D04D0012D0BD0022D1BD111E0606824
:101EE00000694007C00F012148404840074612E002
:101EF00060680069C007C00F01214840484007469C
:101F000009E0606800698007C00F0121484048402F
:101F1000074600E000BF00BF3846D8E770B5054669
:101F200000242846FFF728FF0446002C00D170BD8E
:101F3000606800694007C00F002809D000212846CA
:101F4000FFF74EFFE068002801D0E0688047EEE729
:101F500060680069C007C00F002808D0012128462A
:101F6000FFF73EFF2069002801D0206980476068A4
:101F700000698007C00F002808D002212846FFF71B
:101F80002FFFA068002801D0A068804700BFCEE7DF
:101F9000F8B506460C46012700253046FFF7ECFE53
:101FA0000546002D01D10420F8BD002C01D10420EC
:101FB000FAE72178304600F07EF80746606800288E
:101FC00004D03046616800F08EF80746A06800280B
:101FD00008D0A0684168E960A06881682961A068AC
:101FE0000068A860207B012803D13046FFF7DCFEA3
:101FF00002E03046FFF7A4FE00273846D4E770B56C
:1020000006460C4600253046FFF7B6FE0546002D75
:1020100001D1042070BD02213046FFF7E1FE68685F
:10202000046000BF02213046FFF745FF0028F9D0C9
:1020300002213046FFF7D4FE0020EBE7F8B5074653
:102040000E4614460020009000253846FFF794FE07
:102050000546002D01D0002C01D10020F8BD686894
:1020600040680121490288436178490201225202F5
:1020700011400843696848602078002806D001288C
:1020800006D0022803D0032811D102E000BF0FE0E0
:1020900000BF626851016278521C72431046FEF71D
:1020A00039F801210904081A80B2009000E000BF4D
:1020B00000BF0098D2E770B506460D4600243046B2
:1020C000FFF75AFE0446002C01D1042070BD606861
:1020D0004068C0218843A901C022114008436168BB
:1020E00048600020F2E770B506460C4600253046F1
:1020F000FFF742FE0546002D01D1042070BD002CE3
:1021000013D0686840682021884321784901202243
:1021100011400843696848602078012805D160783B
:1021200069688860A0786968C8600020E6E70000F8
:1021300010B50446002C13D11448406AC007C00FE4
:10214000002822D012480068002802D010480068F9
:1021500080470E48406A400840000C49486214E03D
:10216000012C12D10948406A8007C00F00280CD00A
:1021700008480068002802D00648006880470348E5
:10218000406A022188430149486210BD0024004092
:10219000800000208400002010B508484068000638
:1021A000C00F002808D000F00DF80548006800288E
:1021B00002D003480068804710BD0000800C00403A
:1021C0008800002001201E21024A1160E1211160D7
:1021D00000207047800C004070B50446D007C00F47
:1021E000002818D0002B0BD0A001374D4019006BF0
:1021F00001258D402843A501334EAD1928630AE01F
:10220000A001314D4019006B01258D40A843A50167
:102210002D4EAD19286302201040002818D0002B45
:102220000BD0A001284D4019406B01258D4028435B
:10223000A501254EAD1968630AE0A001224D4019A1
:10224000406B01258D40A843A5011F4EAD19686361
:1022500004201040002818D0002B0BD0A0011A4DEC
:102260004019806B01258D402843A501164EAD19FC
:10227000A8630AE0A001144D4019806B01258D4030
:10228000A843A501104EAD19A863082010400028EE
:1022900018D0002B0BD0A0010B4D4019C06B0125AD
:1022A0008D402843A501084EAD19E8630AE0A0015E
:1022B000054D4019C06B01258D40A843A501024E74
:1022C000AD19E863002070BD000D024070470000AA
:1022D0000FB410B503A9044B044A029800F022F988
:1022E00010BC08BC04B01847192F000030000020B3
:1022F00030B47446641E2578641CAB4204D3635D1D
:102300005B00E31830BC18471D46F8E7002805DBE2
:10231000C206D20E01219140014A116070470000AF
:1023200080E200E010B5002819DB1A4A03231B02E3
:10233000D21883089B00D2588307DC0EFF23A340EA
:102340009A438B071B0E8407E40EA3401A43114BDC
:10235000032424021B198408A4001A5118E00E4A11
:1023600003071B0F083B9B089B00D2588307DC0E1A
:10237000FF23A3409A438B071B0E8407E40EA34060
:102380001A43054B0407240F083CA408A4001A5163
:1023900010BD000000E100E01CED00E010B50028D9
:1023A00019DB1A4A03231B02D21883089B00D25858
:1023B0008307DC0EFF23A3409A438B071B0E840781
:1023C000E40EA3401A43114B032424021B19840872
:1023D000A4001A5118E00E4A03071B0F083B9B0884
:1023E0009B00D2588307DC0EFF23A3409A438B0740
:1023F0001B0E8407E40EA3401A43054B0407240F69
:10240000083CA408A4001A5110BD000000E100E03F
:102410001CED00E010B5002819DB1A4A03231B024B
:10242000D21883089B00D2588307DC0EFF23A340F9
:102430009A438B071B0E8407E40EA3401A43114BEB
:10244000032424021B198408A4001A5118E00E4A20
:1024500003071B0F083B9B089B00D2588307DC0E29
:10246000FF23A3409A438B071B0E8407E40EA3406F
:102470001A43054B0407240F083CA408A4001A5172
:1024800010BD000000E100E01CED00E010B50028E8
:1024900019DB1A4A03231B02D21883089B00D25867
:1024A0008307DC0EFF23A3409A438B071B0E840790
:1024B000E40EA3401A43114B032424021B19840881
:1024C000A4001A5118E00E4A03071B0F083B9B0893
:1024D0009B00D2588307DC0EFF23A3409A438B074F
:1024E0001B0E8407E40EA3401A43054B0407240F78
:1024F000083CA408A4001A5110BD000000E100E04F
:102500001CED00E002E008C8121F08C1002AFAD141
:1025100070477047002001E001C1121F002AFBD163
:1025200070470000FFB58FB00F460446002606E056
:1025300025280AD0129A11999047641C761C20789D
:102540000028F5D1304613B0F0BD002501219F4A87
:10255000009500E00543641C23780846203B984022
:102560001042F7D120782E2815D104200543607839
:10257000641C2A280AD101CF641C00900BE000994A
:102580000A22514330394018641C009020780146DB
:1025900030390929F3D920786C280ED004DC4C2876
:1025A00013D06A2812D104E074280ED07A280DD1F5
:1025B0000BE001204005054307E001210905627891
:1025C0000D43824201D16D18641C641C2078692877
:1025D00049D008DC0028B5D058286CD063280FD02B
:1025E000642808D13FE070286AD0732811D075287C
:1025F0005FD078285FD0129A11999047761CE3E05B
:102600003878694608720020487202A801900120BB
:1026100003E0386801900020C0433F1D69070CD5D6
:10262000002500E06D1C00998D420FDA8542F9DB30
:102630000199495D0029F5D108E0002500E06D1CF5
:102640008542FCDB0199495D0029F8D1761907E044
:10265000019801990078491C0191129A11999047AB
:102660006D1EF5D2B0E00A20029000216802400FF2
:10267000039102280CD001CFC117844600290DDA3E
:1026800060460A4640420021914184462D2008E0E0
:10269000FF1DFF08FF0003CF8446EFE7280504D5A0
:1026A0002B206A46107401203DE0E8073BD0202033
:1026B000F7E70A2000E0102000210391029007E0D4
:1026C000102002900021042005430820039100906F
:1026D0006802400F022811D001CF0021844600205B
:1026E0000D90280720D52078864670280CD0029AB5
:1026F0001020039B42401A430CD015E0FF1DFF0839
:10270000FF0003CF8446EAE740206A4610740120A8
:102710000D900CE06046084306D030206A461074E5
:102720007046507402200D902078582804D028A0BC
:1027300001900DA80E900DE02AA0F9E76046039BDA
:10274000029AFDF751FD019B84469B5C0E9A521E36
:102750000E92137060460843F0D10E9805A9081A2E
:1027600020300190680701D4012000900099019861
:10277000814201DD081A00E000200025009006E0FB
:1027800004A8129A405D119990476D1C761C0D9813
:102790008542F5DB04E0129A302011999047761CAF
:1027A0000099481E00900029F5DC08E00E980E996B
:1027B0000078491C0E91129A11999047761C019944
:1027C000481E01900029F1DC641CB8E609280100CC
:1027D0003031323334353637383961626364656697
:1027E0000000000030313233343536373839414259
:1027F00043444546000000001CB5084801900848C5
:102800000090684600F0BEF9002000F0EBF90023CC
:102810001A460449012000F0E5FF1CBD45310000C7
:10282000693100001535000010B50446B048006855
:10283000002800D110BD0020AE49087051E1AE481B
:10284000AC490978405CFF2800D145E1AA49A94A72
:102850001278885CA64909688847002823D00020A0
:10286000A649A44A12788854A548A2490978405C30
:1028700014280ADAA2489F490978405C0019C1B2BD
:102880009F489C4A1278815430E09E4899490978C3
:10289000405C00282AD101209B4908709949954A3B
:1028A0001278885422E000219548924A1278815487
:1028B000924890490978405C14280ADA8F488D497B
:1028C0000978405C0019C1B28C488A4A1278815458
:1028D0000CE08C4887490978405C012806D18A4978
:1028E000087000218748834A1278815485488149BD
:1028F0000978415C85487F4A1278805C814270D1BA
:1029000081480078012844D100207F4908707A4925
:10291000784A1278885C012100F004F97C4800783C
:102920000421084000280AD001217A48714A12780F
:10293000815400206F4909784900774A5052744801
:10294000007810210840002823D07448694909788C
:10295000405C00280BD101207049664A12788854E7
:1029600000206449097849006D4A505211E06B48D3
:1029700060490978405C01280BD15F495D4A1278B3
:10298000885C102100F0CEF802206449594A127880
:102990008854604857490978405C012865D15548FA
:1029A000007840005C49085A0019524909784900EA
:1029B000594A50524F48007840001146085AFF21AA
:1029C0009131884251DB4C494A4A1278885C042193
:1029D00000F0A8F800214F48464A1278815444E09C
:1029E000FFE74948007801283FD100204649087098
:1029F000484840490978405C012811D100204549E8
:102A00003C4A127888544248007810210840002837
:102A100006D13949374A1278885C082100F082F8DB
:102A20003B4800780421084000280CD13848007841
:102A300010210840002806D12F492E4A1278885CC0
:102A4000082100F06FF82C492A4A1278885C02218C
:102A500000F068F8314827490978405C022804D121
:102A600000202E49234A127888542C48214909789D
:102A7000405C01282FD11F48007840002849085A9F
:102A800000191C4909784900254A50521948007814
:102A900040001146085AFF212D3188421BDB1D489A
:102AA00014490978405C002810D11648114909786A
:102AB000415C16480F4A1278805C814206D00E496C
:102AC0000C4A1278885C082100F02CF80020134989
:102AD000084A1278885400BF06480078401C05490F
:102AE000087004480078012800DAA8E600BFA1E6D3
:102AF000A4000020AC0000208C0000208F000020EB
:102B0000900000208E000020AD0000208D000020ED
:102B1000AB000020910000209200002094000020D3
:102B20009600002010B5124A12780A40002A00D1FF
:102B300010BD104A104B1B78D1540F4A13781278ED
:102B4000521C0D4C22700D4AD05422461278052A90
:102B500002D1002223461A70094A1278052A04DAA3
:102B6000074A1278521C064B1A7000BFE0E70000BB
:102B7000AB00002098000020A90000209D0000204C
:102B8000A80000200249436802680CC17047000099
:102B9000B80000207CB50446114807236A4602218C
:102BA00045686220A847694609780A02694649785B
:102BB0001143FF223232514308467D21C900FDF7FF
:102BC000BFFA60806946887820700879C006C00C1A
:102BD00049790843A08069468879C01060707CBD3F
:102BE000B800002030B591B0044612480123124AC3
:102BF0000A2105686220A847012C06D10FA0FFF723
:102C000067FB00F039F811B030BD0A48402301AA33
:102C1000102145686220A84740220E4901A8FDF70F
:102C2000C7FA002804D00CA0FFF752FB00F024F8EC
:102C300000BFE8E7B8000020B10000206377323021
:102C4000313520696E666F2077656C6C2072657314
:102C500065740A00543F00006377323031352069D3
:102C60006E666F206572726F722C77656C6C207265
:102C7000657365740A00000038B51A4801231A4AC2
:102C80000A2104686220A04716484023174A1021F1
:102C900004686220A0471448401E00791249491E6A
:102CA0004979084300900F4801236A4608210468C7
:102CB0006220A0470B4801230B4A921C0A2104689A
:102CC0006220A0470848401E40780749491E89787D
:102CD00008430090034801236A460A2104686220E1
:102CE000A04738BDB8000020B1000020543F0000CC
:102CF00010B50A460146002900D110BD02E00023AC
:102D00000B70491C1346521E002BF8D100BFF4E78C
:102D100070B5054622480068002803D020480068A6
:102D2000804704461F48056009E000F029FE1E4860
:102D30000068002803D01D481B49096888471948C6
:102D400000680028F1DC16480068002800D170BD3A
:102D500017480078002810D109E000F011FE124851
:102D60000068002803D011480F49096888470C48BB
:102D700000688047A042F0D8E9E709E000F000FED3
:102D800009480068002803D00848074909688847AF
:102D9000034800688047A042F0D300BFD7E7000097
:102DA000D4000020CC000020C0000020C40000207F
:102DB000D800002070B505461F480068002803D0E1
:102DC0001D480068804704461C48056007E01C4811
:102DD0000068002803D01B4819490968884717482C
:102DE00000680028F3DC14480068002800D170BD9A
:102DF0001548007800280ED107E011480068002827
:102E000003D010480E49096888470B48006880477E
:102E1000A042F2D8EBE707E009480068002803D099
:102E20000848074909688847034800688047A04266
:102E3000F2D300BFDBE70000D4000020CC0000206C
:102E4000C0000020C4000020D800002010B50121DF
:102E5000172000F0EDF801220821104600F0A3F839
:102E6000FEF7B2FB00BF0020FDF776FD0028FAD088
:102E700000220821012000F096F80321172000F01D
:102E8000D7F80021172000F0C0F80121172000F02A
:102E9000BCF800BF0B48C068082188430949C860D6
:102EA0000948C068C008C000801D0749C8600548BF
:102EB0000068082188430349086000BF00F096FEBF
:102EC00010BD0000800D0240800C024010B500F0E3
:102ED000CAFAFDF765FD044600F0D8FA00F045F89F
:102EE00000F00AF9012204211F2000F05CF810BD57
:102EF00010B500F091FE0021232000F099F8002188
:102F0000242000F095F800231A460249012000F021
:102F100079FC10BDB135000070B504460D46E1B234
:102F20000120FFF76CF8204670BD30B502461078DE
:102F30003038C3B2521C10783038C4B21801204364
:102F4000C5B20D70022030BD70B504460A2120467E
:102F5000FDF7F6F8CDB20A212046FDF7F1F8C6B22A
:102F600029463046FEF7D0F870BD10B50021032089
:102F700000F05EF800211F2000F05AF80021012027
:102F800000F056F80021202000F052F80021222005
:102F900000F04EF80021212000F04AF80021022024
:102FA00000F046F810BDF7B582B007460D460A217D
:102FB0003846FDF7C5F8C6B20A213846FDF7C0F815
:102FC000C8B2019030460199FEF780F82A46304693
:102FD0000199FEF78DF8002E06D0012E06D0022EA4
:102FE00006D0032E08D105E0002406E0012404E009
:102FF000022402E0032400E000BF00BF03212046BA
:10300000049AFEF713F805B0F0BDF8B505460C4676
:103010000A212846FDF794F8CEB20A212846FDF78A
:103020008FF8C7B2224631463846FEF783F9F8BD1D
:1030300070B586B005460C460A212846FDF780F893
:10304000C1B2684601740A212846FDF779F868463E
:1030500041742300FFF74CF90604180D2129333F72
:103060000121684681740021C17401754175817523
:1030700032E00121684681740021C174012101758B
:1030800000214175817527E0012168468174C17472
:1030900000210175417581751EE00021684681742B
:1030A000C17401754175817516E00021684681740F
:1030B000C174017501214175002181750CE0002169
:1030C000684681740121C174002101750121417597
:1030D0000021817500E000BF00BF6E46B07D717DAC
:1030E000327D009201910290F37CB27C717C307C45
:1030F000FEF74CF806B070BD0EB50F4802900F48B1
:1031000001901A21684641701921017000F035FEC6
:103110000B49086004211920FFF78AFF04211A20B7
:10312000FFF786FF01211920FFF76FFF01211A2009
:10313000FFF76BFF0EBD0000492F00000B300000B1
:1031400004000020F8B504460D4616461F46F8B2A6
:1031500033462A46214600900248006800F03CFEB3
:10316000F8BD000004000020F8B504460D461646E0
:103170001F46B8B233462A462146009002480068EE
:1031800000F0B0FEF8BD00000400002008B50121E9
:103190000820FDF77BFC00211B20FFF749FF0021E1
:1031A000684601700121417000218170FEF7DCF951
:1031B000FFF78CFE00F098F900BF00F08FF9FCE7F4
:1031C000F0B50B30C108C900144F0026144A0FE0B7
:1031D00003688B420BD38B4205D95C1A43184568B0
:1031E00030C3083B00E04368136002C004E0021DE6
:1031F00010680028ECD13046002803D13868002838
:1032000001D00020F0BD064A06481060064A121A96
:10321000D208D20044C001203860D7E7EC0000207B
:10322000E80000202C030020280400207047000044
:1032300010B58CB00446142107A8FFF759FD0821EA
:1032400005A8FFF755FD032102A8FFF751FD07214F
:1032500003A8FFF74DFD27480068002801D0FEF7BE
:103260000BFB01210320FDF7DFFA01211420FDF7FC
:10327000F1FC00216846017701214177A179817431
:103280006179417421790174A17881736178417306
:103290002178017304A8FEF7D5F901466846C17389
:1032A00003A80990144805901448069005A80A90B0
:1032B000002168460171417101A80890012108A808
:1032C00001730020FEF7ECFA07A8FEF773FB00205D
:1032D000FEF714FB07480068002808D100231A46AF
:1032E00007497D20C00000F08DFA024908600CB04B
:1032F00010BD00001400002005160000211600007B
:103300005D35000010B504462078012162689047C1
:103310006078012162689047204600F075F82078B7
:10332000002162689047204600F06EF86078002126
:103330006268904710BD10B504466078002162684D
:1033400090472078012162689047204600F05CF8A1
:103350006078012162689047204600F055F8607857
:1033600000216268904710BD70B5044620780121A5
:103370006268904700256078012162689047204686
:1033800000F042F800211920FFF752FE0EE0681C01
:1033900085B2208CA84209D16078002162689047EC
:1033A00004211920FFF744FE002070BD2078A16899
:1033B00088470028EBD1607800216268904704219B
:1033C0001920FFF735FE0120EFE710B504462078FD
:1033D000002162689047204600F016F860780121CD
:1033E00062689047204600F00FF86078002162681C
:1033F0009047204600F008F8207801216268904745
:10340000204600F001F810BDC17F00BF0A464B1EE8
:10341000D9B2002AFAD1704770B5044600250021C0
:103420001920FFF705FE002615E06806050E204668
:10343000FFF7EAFF60780121626890472046FFF7B6
:10344000E3FF2078A168884705436078002162681F
:103450009047701CC6B2082EE7DB04211920FFF745
:10346000E7FD284670BD08B50021684601700121BE
:1034700041708170FDF7FCFA0220FDF709FC00BFE6
:103480000020FDF769FA0028FAD008BD7CB5054692
:103490000020694608707D21C9002846FCF73AFEE5
:1034A000401E01906846FDF757FD019C601E0949CA
:1034B000884200D90CE0601E074948610321081FBB
:1034C000FEF730FF0020044988610720086100BF33
:1034D0007CBD0000FFFFFF0000E000E010B500F041
:1034E0004FFAFFF7A3FE10BD1CB5FFF701FD00204A
:1034F00000900190232168468171042141712221AD
:1035000001711221817034214170FFF791FEFFF7A4
:1035100073F91CBD38B504460648FFF73BFB054868
:1035200040780090034883880278418802A0FEF723
:10353000CFFE38BD0C00002028766F6C256429284A
:10354000736F6325642928727474256429286C6F4D
:10355000775F736F63256429000000001FB5044680
:103560000B48FEF76DFA0A48007809494978084A7D
:103570009278074BDB780093019202910390044804
:1035800003794279817903A0FEF7A2FE1FBD0000F6
:10359000190000202874696D6525782D25782D2562
:1035A000782D25782D25782D25782D257829000052
:1035B0003EB505464D48007801287DD100204B4995
:1035C00008700A224AA14D48FCF7FFFD002803D1EC
:1035D00001204B49087083E00A224AA14748FCF7C2
:1035E000F4FD002808D14AA0FEF772FE0A20FFF77A
:1035F000E1FBFFF72BFC73E0052248A13F48FCF7F5
:10360000E4FD002830D105243C49081902A9023103
:10361000FFF78BFC0019C4B23849081902A901311F
:10362000FFF783FC0019C4B23449081902A9FFF757
:103630007CFC0019C4B23149081901A90231FFF715
:1036400074FC0019C4B22D49081901A90131FFF712
:103650006CFC0019C4B22949081901A9FFF765FCDF
:1036600001A8FFF7E5FD3BE006222EA12348FCF769
:10367000ACFD002834D12DA0FEF72AFE694635485E
:10368000006800F0E5FB6846017833A0FEF720FEF5
:103690006420FFF78FFB36A0FEF71AFE6420FFF7C9
:1036A00089FB39A0FEF714FE6420FFF783FB41A0DD
:1036B000FEF70EFE642000E016E0FFF77BFB00241F
:1036C00009E06A46601C115C43A0FEF701FE0A2077
:1036D000FFF770FB641C68460078A042F1D800BF79
:1036E0003C210648FCF759FD3EBD000020000020AB
:1036F000286573702077616B65290000F000002059
:103700002100002028686320736C65657029000023
:103710002865737020736C65657029002874696D65
:1037200065000000287363616E29000028736361DF
:103730006E206465766963652C20706C65617365C5
:103740002077616974696E67207365636F6E647357
:10375000290000000400002028666F756E6420694F
:10376000696320646576696365733A25640A290094
:103770002869662074686973206E756D62657220B1
:10378000697320342900000028746861742069730B
:10379000206D65616E20796F7572206969632064A0
:1037A000657669636573206973206F6E6C696E65F9
:1037B000290000002868617665206E6F2070726FA6
:1037C000626C656D0A746865726520616464726517
:1037D00073733A29000000002820307825307820C3
:1037E00029000000F0B504460D4616461F467D210F
:1037F000C900614308463B463246294600F002F8BC
:10380000F0BD000070B5044647480078002825D177
:103810000120454D28700020444D28701AE00025F5
:10382000424800781C267043414E35503F4800788E
:103830001C2670433E4E801945606D1E3B48007843
:103840001C2670433A4E8019058338480078401C86
:10385000364D2870354800780828E0DB002A01DA68
:10386000002070BD002901D10020FAE7002C01D111
:103870000020F6E700202D4D28704FE02B480078FF
:103880001C2568432A4D2858002842D12748007833
:103890001C256843264D29500025244800781C2605
:1038A0007043234E80190561204800781C25684329
:1038B0003546401944611D4800781C25684335464B
:1038C00040190283194800781C256843354645197C
:1038D000164800781C267043154E801985601348E1
:1038E00000781C25684335464019C3600F480078AE
:1038F000104D2D78A84204DB0C480078401C0D4D7B
:1039000028700A4800781C256843094D40198068D2
:10391000A7E706480078401C044D2870034800784B
:103920000828ABDB00209CE7D1000020E10000204C
:1039300048020020D000002006490968491C054AB9
:1039400011600121044A117004490968091A034AE7
:1039500011607047DC000020E0000020CC00002057
:1039600070B505462C46002D00D170BD206800289A
:1039700000D1FAE7204608302168884700BFF4E705
:1039800010B56C480078002803D06B4800780028F8
:1039900000D110BD69480068694908600020674986
:1039A00008606549087067490870B9E065480078A3
:1039B0001C214843644940181821415E002900DA5F
:1039C000A9E0604800781C2148435F49401800691D
:1039D0005B49096841185B4800781C2250435A4AE9
:1039E00080180161574800781C214843114640184F
:1039F0000169544800781C225043534A801840699A
:103A0000814200D287E04F4800781C2148434E494C
:103A1000401801694B4800781C2250434A4A8018DC
:103A20004069091A474800781C225043464A8018CA
:103A30000161444800781C21484311460858002879
:103A400008D1411E3F4800781C2250433E4A80184E
:103A5000018360E03B4A12781C235A433A4BD21848
:103A600010460830374A12781C235A43364B99586F
:103A70008847344800781C21484333494018008B5C
:103A8000002847D02F4800781C2148432E49401871
:103A9000008B401E01B22B4800781C2250432A4A5A
:103AA00080180183274800781C214843114640189C
:103AB000008B00282ED1234800781C214843114652
:103AC0004018406800280FD01E4A12781C235A4321
:103AD0000B46D218104608301A4A12781C235A4353
:103AE0000B46D218516888470021164800781C22DE
:103AF0005043154A80184160124800781C225043F8
:103B0000114A1150491E0F4800781C2250430E4A9A
:103B10008018018300BF0B480078401C09490870D9
:103B20000848007809490978884200DA3EE700BF72
:103B30002FE70000D1000020E0000020DC00002082
:103B4000E4000020E200002048020020D000002015
:103B500010B50446282C05D12048047001202049C6
:103B6000087038E0292C27D11D4800783B2800D365
:103B700010BD1B4801780078401C194A1070174886
:103B800044540021104602780078401C144B1870F1
:103B90001248815413480078002800D0E8E7104804
:103BA00002780E491048FCF7DFFA01200D49087031
:103BB00000200B4908700EE0094801780078401C8D
:103BC000074A10700548445410460078402802D136
:103BD00000201146087000BFCAE700002C01002039
:103BE0002200002020000020F000002010B500205E
:103BF0000749087002E00120FFF78AF804480078BE
:103C00000028F8D003480068FFF7AAFE10BD0000A6
:103C1000210000201400002030B58FB000240025C2
:103C20000C2108A8FFF764F8032107A8FFF760F844
:103C3000082105A8FFF75CF814216846FFF758F83B
:103C400003211720FFF7F4F900211820FFF7F0F9FE
:103C500000BF4048C068082188433E49C8603E48CC
:103C6000C068C008C000801D3B49C8603948006872
:103C7000082188433749086000BF00BF0846C06874
:103C8000102188433349C86033480069C008C00028
:103C9000801D314908612F48006810218843103089
:103CA0002C4908602D4840680121490388432B496D
:103CB000486000BF01210820FCF7CCFF0121084625
:103CC000FCF7C8FF00200A90089009900021684680
:103CD000017708A80D9007A80C9008A8017601218B
:103CE00001730021684641754B20C00106900121F7
:103CF00068460175FCF7ACFE054605AA2946012079
:103D0000FEF79CF9044601216846417100210171CA
:103D100069460120FCF728FC21460120FCF7C8FB7E
:103D200021460120FCF7F2FB0120FCF715FD0BA951
:103D30000120FEF72DF901210846FEF796F8012132
:103D40000846FEF74DF801210846FEF776F80FB059
:103D500030BD0000800D0240800C0240000F024088
:103D600070B505460C462846FFF7CCFA6006040EEF
:103D70002146284600F089F870BD70B5054624201C
:103D8000FFF71EFA0446002C00D170BD284607C874
:103D9000234607C30020A077607720770120E077D3
:103DA000000220842046F0E710B504462078002168
:103DB000626890472046FFF727FB60780121626820
:103DC00090472046FFF720FB20780121626890474A
:103DD0002046FFF719FB10BDFFB581B00D46174611
:103DE0001E4629460198FFF7BBFF002805D1019820
:103DF000FFF7DAFF002005B0F0BD3946019800F06A
:103E000044F86806050E012005430198FFF77AFA89
:103E10002946019800F039F8002411E00198FFF7D5
:103E2000FBFA3070761C0A98401EA04203DD019810
:103E3000FFF7CBFA02E00198FFF77DFA601CC4B2ED
:103E40000A988442EADB0198FFF7AEFF0120D2E72F
:103E5000F3B581B00C4600202070671C002510E0EF
:103E60002E4631460198FFF77BFF002804D02078CA
:103E7000401C20703E707F1C0198FFF795FF681C66
:103E8000C5B2802DECDB0027FEBD70B504460D46A3
:103E9000002621E080202840802804D120780121BC
:103EA0006268904703E020780021626890476806C6
:103EB000050E2046FFF7A8FA607801216268904756
:103EC0002046FFF7A1FA60780021626890472046FB
:103ED000FFF79AFA701CC6B2082EDBDB2046FFF70C
:103EE00043FA70BDFFB581B0064615461C460A9FD1
:103EF00030460299FFF734FF002801D105B0F0BD2C
:103F000029463046FFF7C1FF04E02178641C3046A3
:103F1000FFF7BBFF3846791E8FB20028F5D1304637
:103F2000FFF742FF0120E9E7008000000096000053
:103F30000306000305010306020400020400000357
:103F400005010306020400023128313031303131DD
:103F500030313031157E7C5C646A655C5553566146
:103F60006F665048434240434B5F757D524407AEF5
:103F7000112240566C7C85863D198D1B063446798E
:103F80008D909046678097AF809FAECB2F0064A541
:103F9000B511D011B43F000000000020F000000077
:103FA00004250000A4400000F000002038040000B8
:103FB0001425000000093D00000000000000000082
:103FC00000000000000000000000000000000000F1
:103FD00000000000000000000000000000000000E1
:103FE00000000000000000000000000000000000D1
:103FF00000000000000000000000000000000000C1
:1040000000000000000000000000000000000000B0
:104010000000004000000000000000000000000060
:10402000010000000001004000000000000000004E
:104030000000000000000000000000000000000080
:10404000FF00000000000000000000000000000071
:10405000000000000000000000000000000000FF61
:1040600000000000C000300F021800000000000037
:104070000000000000000000000000000000000040
:104080000000000000000000000000000000000030
:104090000000000000000000000000000000000020
:0440A000000000001C
:04000005000000C136
:00000001FF
